:100000000215A302000902195B80FE02128580FE20
:1000100080FE2202000E80FE80FE1402075580FE44
:0200200080FE60
:0700230002001080FE80FEC8
:10002B0002001690FF1074C1F0D2A090FFA07420B4
:10003B00F0759E0274FFF5CEF5CD75CC062280FED1
:03004B0002001898
:0300530002001E8A
:03005B0002002080
:0C006300020026300105C20143D44022F7
:03007300021A6A04
:0B007B00020028D201E5D420E6FB22A1
:10008B000200498F13C20374017E00A80708800584
:10009B00C333CE33CED8F9F51B8E1A75F002E513A8
:1000AB00A424F6F582E5F0341CF583E493FC74018B
:1000BB0093FD900034E0FF7E001214737C007D0AE8
:1000CB001214858E148F1575F002E513A424D6F542
:1000DB0082E5F0341CF583E493F516740193F51760
:1000EB0074172513F582E43400F583E0F513F470EF
:1000FB000302075475F002E513A4242EF582E5F0F4
:10010B003400F583E0FEA3E0FF75F002E513A424B1
:10011B003DF582E5F03400F583E0FCA3E0C39FF5E9
:10012B0019EC9EF51875F002E513A4240BF582E586
:10013B00F03400F583E0FCA3E0C39FFFEC9EAB071C
:10014B00FA901CD4E493FF70030202817E00AC147E
:10015B00AD15121473D3EB9FEE6480F8EA648098AC
:10016B00500302027F75F002E513A42411F582E51A
:10017B00F03400F583E475F0011214DA75F002E542
:10018B0013A42411F582E5F03400F583E0FEA3E01F
:10019B00FF901CCEE493FC740193FDD3EF9DEE9C7A
:1001AB00402C75F002E513A4242EF582E5F0340003
:1001BB00F583E5188519F01214DA75F002E513A42E
:1001CB002411F582E5F03400F583E4F0A3F0741EFE
:1001DB002513F582E43400F583E004F0741E251337
:1001EB00F582E43400F583E0FF901CD3E493FEEF3B
:1001FB00C39E401FE51BF4FFE51AF4FE900072E06E
:10020B005EF0A3E05FF0741E2513F582E43400F575
:10021B0083E4F074002513F582E43400F583E4F0F5
:10022B0075F002E513A42421F582E5F03400F58383
:10023B00E4F0A3F075F002E513A42435F582E5F0A4
:10024B003400F583E4F0A3F075F002E513A4240564
:10025B00F582E5F03400F583E4F0A3F075F002E5E8
:10026B0013A42427F582E5F03400F583E4F0A3F022
:10027B00D2038002C203C3EB9515E5146480F8EA40
:10028B0064809850030203BD3003030207549000AF
:10029B0003E0FEA3E0FF4E606A75F002E513A424B1
:1002AB0021F582E5F03400F583E475F0011214DAE0
:1002BB0075F002E513A42421F582E5F03400F583F3
:1002CB00E0FCA3E0C39FEC9E403975F002E513A45C
:1002DB00242EF582E5F03400F583E5188519F0122C
:1002EB0014DA74002513F582E43400F583E4F07519
:1002FB00F002E513A42421F582E5F03400F583E444
:10030B00F0A3F0901D17E4937E002515FFEE351436
:10031B00FEC3E5199FEE6480F8E518648098500DD4
:10032B00C3EB9FEE6480F8EA648098405374002519
:10033B0013F582E43400F583E004F074002513F523
:10034B0082E43400F583E0FF901CD2E493FEEFC30C
:10035B009E4019900072E0451AF0A3E0451BF07423
:10036B00002513F582E43400F583E4F075F002E523
:10037B0013A42435F582E5F03400F583E4F0A3F003
:10038B00741E2513F582E43400F583E4F075F00256
:10039B00E513A42411F582E5F03400F583E4F0A312
:1003AB00F075F002E513A42405F582E5F0340002A4
:1003BB000643D3EB9517E5166480F8EA64809850F2
:1003CB00030204DE90003BE0FEA3E0FF4E605D7590
:1003DB00F002E513A42435F582E5F03400F583E44F
:1003EB0075F0011214DA75F002E513A42435F582C9
:1003FB00E5F03400F583E0FCA3E0D39FEC9E402CAA
:10040B0075F002E513A4242EF582E5F03400F58394
:10041B00E5188519F01214DA75F002E513A42435EA
:10042B00F582E5F03400F583E4F0A3F0901D17E4BA
:10043B0093FFC3E5159FFFE5149400FEC3E5199FD9
:10044B00EE6480F8E518648098400CEB9FEE6480B6
:10045B00F8EA6480985059741E2513F582E4340031
:10046B00F583E004F0741E2513F582E43400F58364
:10047B00E0FF901CD3E493FEEFC39E401FE51BF4FB
:10048B00FFE51AF4FE900072E05EF0A3E05FF074FB
:10049B001E2513F582E43400F583E4F075F002E5D4
:1004AB0013A42421F582E5F03400F583E4F0A3F0E6
:1004BB0075F002E513A42411F582E5F03400F58301
:1004CB00E4F0A3F074002513F582E43400F583E423
:1004DB00020648C3E49517FFE49516FEC3EB9FEEA7
:1004EB006480F8EA648098500302065AD3EB9517A0
:1004FB00E5166480F8EA648098400302065A75F0AA
:10050B0002E513A42405F582E5F03400F583EA8BAC
:10051B00F01214DA901CD5E493F9FF75F002E51391
:10052B00A42405F582E5F03400F583E0FCA3E0FD9F
:10053B00D39F7480F8EC648098401D90002DE0FFF1
:10054B0075F002E513A4242EF582E5F03400F58353
:10055B00E48FF01214DA8044E9FFC3E49FFFE494C4
:10056B0000FEC3ED9FEE6480F8EC648098504175FB
:10057B00F002E513A4242EF582E5F03400F583C0D8
:10058B0083C082E0FEA3E0FF90002DE0FDC3EF9D52
:10059B00FFEE9400D082D083F0A3EFF075F002E56C
:1005AB0013A42405F582E5F03400F583E4F0A3F001
:1005BB00741E2513F582E43400F583E004F0741EF9
:1005CB002513F582E43400F583E0FF901CD3E4930C
:1005DB00FEEFC39E401F741E2513F582E43400F515
:1005EB0083E4F0E51BF4FFE51AF4FE900072E05E85
:1005FB00F0A3E05FF075F002E513A42411F582E59A
:10060B00F03400F583E4F0A3F074002513F582E4D5
:10061B003400F583E4F075F002E513A42421F58290
:10062B00E5F03400F583E4F0A3F075F002E513A4D4
:10063B002435F582E5F03400F583E4F0A3F075F092
:10064B0002E513A42427F582E5F0340002074C9051
:10065B001CD0E493FE740193FF4E605D75F002E5D0
:10066B0013A42427F582E5F03400F583E475F0013B
:10067B001214DA75F002E513A42427F582E5F034A1
:10068B0000F583E0FCA3E0C39FEC9E402C75F002C9
:10069B00E513A42427F582E5F03400F583E4F0A3F9
:1006AB00F075F002E513A4242EF582E5F03400F585
:1006BB0083E5188519F01214DA741E2513F582E4FC
:1006CB003400F583E004F0741E2513F582E4340046
:1006DB00F583E0FF901CD3E493FEEFC39E401F74A1
:1006EB001E2513F582E43400F583E4F0E51BF4FFDB
:1006FB00E51AF4FE900072E05EF0A3E05FF075F097
:10070B0002E513A42411F582E5F03400F583E4F03F
:10071B00A3F074002513F582E43400F583E4F0753F
:10072B00F002E513A42421F582E5F03400F583E40F
:10073B00F0A3F075F002E513A42435F582E5F0344F
:10074B0000F583E4F0A3F0C20322C0E0C083C082B3
:10075B00C0D075D000C000C007900070E06401707D
:10076B0014054AC3E54A940574809480400A754A7F
:10077B0000B2B48003754A0020A30E053BE53B7025
:10078B0002053A753E00020D210539E53970020567
:10079B0038E53E6003020D1EC3E5399404E5389439
:1007AB00004036D3E5399406E5389400502BC3E569
:1007BB003B9496E53A94004020D3E53B9440E53AD0
:1007CB00940150157549017537007531007533006B
:1007DB00753500753600020D12E5496401700EC3C4
:1007EB00E5379420748094804003020D12E5497024
:1007FB0003020CE9E537B420004003020C8B900890
:10080B0010F82828730208700208920208B4020834
:10081B00D60208F802091A02093C02095E02098095
:10082B000209A20209C40209E6020A08020A2A0204
:10083B000A4C020A6E020A90020AB2020AD4020A97
:10084B00F6020B18020B3A020B5C020B7E020BA09A
:10085B00020BC2020BE4020C06020C21020C3C023E
:10086B000C57020C72C3E53B9404E53A9400500319
:10087B00020C8BD3E53B9406E53A94004003020C43
:10088B008B433180020C8BC3E53B9404E53A940017
:10089B005003020C8BD3E53B9406E53A94004003DE
:1008AB00020C8B433140020C8BC3E53B9404E53ABD
:1008BB0094005003020C8BD3E53B9406E53A94006D
:1008CB004003020C8B433120020C8BC3E53B940499
:1008DB00E53A94005003020C8BD3E53B9406E53AC2
:1008EB0094004003020C8B433110020C8BC3E53B8D
:1008FB009404E53A94005003020C8BD3E53B940629
:10090B00E53A94004003020C8B433108020C8BC375
:10091B00E53B9404E53A94005003020C8BD3E53B82
:10092B009406E53A94004003020C8B433104020C0D
:10093B008BC3E53B9404E53A94005003020C8BD334
:10094B00E53B9406E53A94004003020C8B433102DD
:10095B00020C8BC3E53B9404E53A94005003020C64
:10096B008BD3E53B9406E53A94004003020C8B4392
:10097B003101020C8BC3E53B9404E53A9400500320
:10098B00020C8BD3E53B9406E53A94004003020C32
:10099B008B433380020C8BC3E53B9404E53A940004
:1009AB005003020C8BD3E53B9406E53A94004003CD
:1009BB00020C8B433340020C8BC3E53B9404E53AAA
:1009CB0094005003020C8BD3E53B9406E53A94005C
:1009DB004003020C8B433320020C8BC3E53B940486
:1009EB00E53A94005003020C8BD3E53B9406E53AB1
:1009FB0094004003020C8B433310020C8BC3E53B7A
:100A0B009404E53A94005003020C8BD3E53B940617
:100A1B00E53A94004003020C8B433308020C8BC362
:100A2B00E53B9404E53A94005003020C8BD3E53B71
:100A3B009406E53A94004003020C8B433304020CFA
:100A4B008BC3E53B9404E53A94005003020C8BD323
:100A5B00E53B9406E53A94004003020C8B433302CA
:100A6B00020C8BC3E53B9404E53A94005003020C53
:100A7B008BD3E53B9406E53A94004003020C8B4381
:100A8B003301020C8BC3E53B9404E53A940050030D
:100A9B00020C8BD3E53B9406E53A94004003020C21
:100AAB008B433580020C8BC3E53B9404E53A9400F1
:100ABB005003020C8BD3E53B9406E53A94004003BC
:100ACB00020C8B433540020C8BC3E53B9404E53A97
:100ADB0094005003020C8BD3E53B9406E53A94004B
:100AEB004003020C8B433520020C8BC3E53B940473
:100AFB00E53A94005003020C8BD3E53B9406E53AA0
:100B0B0094004003020C8B433510020C8BC3E53B66
:100B1B009404E53A94005003020C8BD3E53B940606
:100B2B00E53A94004003020C8B433508020C8BC34F
:100B3B00E53B9404E53A94005003020C8BD3E53B60
:100B4B009406E53A94004003020C8B433504020CE7
:100B5B008BC3E53B9404E53A94005003020C8BD312
:100B6B00E53B9406E53A94004003020C8B433502B7
:100B7B00020C8BC3E53B9404E53A94005003020C42
:100B8B008BD3E53B9406E53A94004003020C8B4370
:100B9B003501020C8BC3E53B9404E53A94005003FA
:100BAB00020C8BD3E53B9406E53A94004003020C10
:100BBB008B433680020C8BC3E53B9404E53A9400DF
:100BCB005003020C8BD3E53B9406E53A94004003AB
:100BDB00020C8B433640020C8BC3E53B9404E53A85
:100BEB0094005003020C8BD3E53B9406E53A94003A
:100BFB004003020C8B433620020C8BC3E53B940461
:100C0B00E53A9400407AD3E53B9406E53A940050DC
:100C1B006F433610806AC3E53B9404E53A94004079
:100C2B005FD3E53B9406E53A940050544336088075
:100C3B004FC3E53B9404E53A94004044D3E53B9421
:100C4B0006E53A940050394336048034C3E53B94AF
:100C5B0004E53A94004029D3E53B9406E53A940029
:100C6B00501E4336028019C3E53B9404E53A9400C9
:100C7B00400ED3E53B9406E53A940050034336010E
:100C8B000537C3E537942074809480407AE53F7034
:100C9B003985362C85352A853328853126753F01D4
:100CAB007552037553E8AF2CEF6460600AEF646113
:100CBB006005EF64627008752501754201801A7535
:100CCB003200752501754200800F85362E85352B38
:100CDB008533298531277540017549008029753782
:100CEB000075490075360075350075330075310098
:100CFB00752C00752A007528007526007542007545
:100D0B002501900069E4F0753A00753B00753800D9
:100D1B00753900753E01E53F603DE5531553700293
:100D2B001552E55345527002F53FE5406029E52623
:100D3B00B52718E528B52913E52CB52E0E752D0111
:100D4B007532017525017542018006752D007532CE
:100D5B0000753F00754000D007D000D0D0D082D0B6
:100D6B0083D0E032E4F513F514F515901D16932599
:100D7B00E025E0FF901D18E493FD2F240EF513756D
:100D8B001400F51574102515F515E43514F51490AC
:100D9B001CC3E493FA740193FBEA2515F515E435AE
:100DAB0014F514EB2515F515E43514F514ED25158F
:100DBB00F515E43514F514E4F512901D18E493FFC2
:100DCB00E512C39F5013E512901CBC932515F51526
:100DDB00E43514F514051280E1E4F512901D16E4C8
:100DEB0093FFE512C39F505875F002E512A4243D02
:100DFB00F582E5F03400F583E0FCA3E0FDEC25156E
:100E0B00F515E43514F514ED2515F515E43514F544
:100E1B001475F002E512A4242EF582E5F03400F5EA
:100E2B0083E0FCA3E0FDECFFEF2515F515E435148D
:100E3B00F514ED2515F515E43514F5140512809C04
:100E4B00900072E0FCA3E0FDEC2515F515E43514DC
:100E5B00F514ED2515F515E43514F5147F55121C15
:100E6B00A67FAA121CA67F55121CA67FAA121CA62F
:100E7B00AF13121CA67F10121CA6E4FF121CA6E4D3
:100E8B00FF121CA6E4FF121CA6901CC3E493FF12D6
:100E9B001CA6901CC3E4740193FF121CA6901D1892
:100EAB00E493FF121CA6E4F512901D18E493FFE5E2
:100EBB0012C39F500EE512901CBC93FF121CA6058B
:100ECB001280E6E4F512901D16E493FFE512C39F22
:100EDB00501C75F002E512A4243DF582E5F03400B8
:100EEB00F583E0FEA3E0FF121C93051280D8E4F516
:100EFB0012901D16E493FFE512C39F501C75F00270
:100F0B00E512A4242EF582E5F03400F583E0FEA370
:100F1B00E0FF121C93051280D8E4FF121CA6E4FF1D
:100F2B00121CA6900072E0FF121CA6900072A3E0A8
:100F3B00FF121CA6AF15AE14021C9390FE94E04456
:100F4B0002F090FE40E4F0A3F0A3F0A3F0A3F0A313
:100F5B00F0A3F0A3F0A3F0A3F0A3F0A3F0A3F0A3EE
:100F6B00F0A3F0A3F090FE60F0A3F0A3F0A3F0A326
:100F7B00F0A3F0A3F0A3F0901CC89390FE77F09031
:100F8B001CC9E49390FE76F0901CCAE49390FE7516
:100F9B00F0901CCBE49390FE74F0901CC3E493F59B
:100FAB001D740193F51E901CCDE4936061E4F51262
:100FBB00901D18E493FFE512C39F505274017E00FD
:100FCB00A812088005C333CE33CED8F9FFE51D5EDA
:100FDB00FEE51E5F4E603390FE72C083C082E0FC64
:100FEB00A3E0FDE512901CBC93FF74017E00A807E3
:100FFB00088005C333CE33CED8F9FFEC4EFEED4F50
:10100B00FFD082D083EEF0A3EFF0051280A243D481
:10101B0080D2BD1218CA901D18E493F51C12195BEF
:10102B00D202C200120066901D19E493FFD3940301
:10103B0050057512058005EF2404F512E512600FBB
:10104B003000F91219A21512C20012006680ED12BF
:10105B001AA5C20222E55464016003021178F5540B
:10106B0090006FE014601424FE603314607A1470E7
:10107B00030211282405702302117290006EE00404
:10108B00F0700690006DE004F0D390006EE0940ACF
:10109B0090006DE09400500302114C02117290000D
:1010AB0071E0604290006EE004F0700690006DE01D
:1010BB0004F090006DE0FEA3E0FFD39414EE9400D7
:1010CB005002807DD3EF941EEE9400500302115C0E
:1010DB00D3EF9432EE940050028066D3EF9464EE1B
:1010EB0094005035806B807F900071E0602D9000F4
:1010FB006EE004F0700690006DE004F090006DE07F
:10110B00FEA3E0FFD39450EE940050028033D3EF54
:10111B009464EE940050028038803E804A900071B7
:10112B00E0604490006EE004F0700690006DE00407
:10113B00F090006DE0FEA3E0FFD3940CEE94005012
:10114B00079000707401F022D3EF9414EE940050CA
:10115B0008C2B4E4900070F022E490006DF0A3F0AC
:10116B00900071E014F022E4FDFF121C3E22E4F526
:10117B001F121B80E55814602414607E1470030248
:10118B00125614700302127A24046003021282EFC7
:10119B007003021282755801F559021282EF6559DC
:1011AB007049F55BF55CEF14603424F9602824E892
:1011BB00601424F0603024F06014243070347558BF
:1011CB0002751F10802F755802751F2080277558C8
:1011DB0002751F40801F755802751F0880177558C0
:1011EB0002751F01800F755802800AEF7004F558C5
:1011FB008003755804851F5A807DEF6559704AEF3F
:10120B00FD7C0064307010C3E55C942CE55B9401AD
:10121B004065751F308053ED64084C7010C3E55C5E
:10122B00942CE55B9401404F751F99803DED641044
:10123B004C6006ED64204C703EC3E55C9464E55B4A
:10124B00940040337558038017801FEFB5591B0569
:10125B005CE55C7002055BC3940AE55B9400401788
:10126B00E4F55BF55C855A1F800D7558048008EF1B
:10127B0065596003E4F558AF1F22C0E0C083C082FC
:10128B00C0D00556E55670020555D3E5489400E5E8
:10129B004794004008E5481548700215470530D3C0
:1012AB00E530940A748094804006753000755401C3
:1012BB000551D3E5519432748094804006755100EA
:1012CB0075410120A122754B00754C000524E524C6
:1012DB0070020523C394B8E523940B402575230BAB
:1012EB007524B8754D00801A752300752400054CC4
:1012FB00E54C7002054BD394D0E54B940750037526
:10130B004D01054FE54F7002054ED394E8E54E9421
:10131B00034051754E00754F00753D01900069E01B
:10132B00640170140521E521940574809480400BB1
:10133B007521007522018003752100052FC3E52F50
:10134B00940F74809480400C752F0090004BE4F048
:10135B0090004FF00534C3E534940F7480948040B3
:10136B0003755701D0D0D082D083D0E032121C55F8
:10137B00121766121C6B121C7F121CB57B017A00B4
:10138B0079557D087F007E3C121B15900056E0FFBF
:10139B00900053F0900057E0FE900043F0900058FF
:1013AB00E0FD900054F0900059E0FC900044F09068
:1013BB00005AE0F509A3E0F50BA3E0F50D90004E04
:1013CB00EFF090006BEEF0900050EDF090006CECB5
:1013DB00F0900045E509F0A3E50BF0A3E50DF0D285
:1013EB00AF120F4612002E3000311219A2121BB28F
:1013FB00120012C200C2BD120D6FD2BD900051E09F
:10140B00FEA3E0FF900072E0FCA3E0FD6F7002EC26
:10141B006E6008900051ECF0A3EDF0900051E0FEEF
:10142B00A3E0FF1217EA121A2B12186D1216D31221
:10143B00163D121C1E121060121ADE80AABB01068A
:10144B0089828A83E0225002E722BBFE02E32289D3
:10145B00828A83E49322BB010689828A83F022501D
:10146B0002F722BBFE01F322EF8DF0A4A8F0CF8C84
:10147B00F0A428CE8DF0A42EFE22BC000BBE0029BA
:10148B00EF8DF084FFADF022E4CCF875F008EF2F70
:10149B00FFEE33FEEC33FCEE9DEC984005FCEE9D2D
:1014AB00FE0FD5F0E9E4CEFD22EDF8F5F0EE842049
:1014BB00D21CFEADF075F008EF2FFFED33FD4007AA
:1014CB00985006D5F0F222C398FD0FD5F0EA22C54D
:1014DB00F0F8A3E028F0C5F0F8E58215827002154C
:1014EB0083E038F022EB9FF5F0EA9E42F0E99D4253
:1014FB00F0EC6480C864809845F0224200510000F3
:10150B00020F0000010A00010C00010E0041004E09
:10151B000041006B004100500041006C004100692C
:10152B000054005500000000000000000000000007
:10153B000000000000000000410045004100460093
:10154B004100470041004C00010800011100025B03
:10155B000000015800015900015A00015D00012DE6
:10156B0001013200012100012200014D0101570050
:10157B0001340042000303E842003B03E84100341E
:10158B000A41002D02011C00021D0000C102C10115
:10159B00C10042007200000078FFE4F6D8FD900015
:1015AB00007F007E04E4F0A3DFFCDEFA75815D02B0
:1015BB0015F8021378E493A3F8E493A34003F680A1
:1015CB0001F208DFF48029E493A3F85407240CC834
:1015DB00C333C4540F4420C8834004F456800146DF
:1015EB00F6DFE4800B010204081020408090150602
:1015FB00E47E019360BCA3FF543F30E509541FFE0A
:10160B00E493A360010ECF54C025E060A840B8E47A
:10161B0093A3FAE493A3F8E493A3C8C582C8CAC5FD
:10162B0083CAF0A3C8C582C8CAC583CADFE9DEE78F
:10163B0080BE900053E0FF90004EE06F703690003C
:10164B0043E0FF90006BE06F702A900054E0FF9036
:10165B000050E0B5071E900044E0FF90006CE0B531
:10166B000712900045E0B5090BA3E0B50B06A3E00C
:10167B00650D6053900053E090004EF0900043E0F6
:10168B0090006BF0900054E0900050F0900044E01C
:10169B0090006CF0900045E509F0A3E50BF0A3E595
:1016AB000DF07F007E3C121BFC7B017A0079557D8F
:1016BB00087F007E3C1219E77B017A0079557D0883
:1016CB007F007E3C121B152290004CE064016003EE
:1016DB00021765F090006AE0FF900056E0B507280E
:1016EB0090004AE0FE900057E0B5061C90006AE0BF
:1016FB00FE900053F090004AE0FD900043F0900004
:10170B0056EEF0A3EDF08044900058E0B50723901F
:10171B00004AE0FF900059E0B5071790006AE0FF20
:10172B00900054F090004AE0FE900044F090005876
:10173B00801590006AE0FF900053F090004AE0FEA5
:10174B00900043F0900056EFF0A3EEF090005AE5B6
:10175B0009F0A3E50BF0A3E50DF022E4F58090FF73
:10176B000004F090FF01F090FF0274C1F090FF03B2
:10177B007401F090FF04F090FF05F090FF06F090DD
:10178B00FF07F090FF08F090FF09F090FF0AF09030
:10179B00FF0BF090FF0CF090FF0DF090FF0EF09010
:1017AB00FF0FF0E4F5A090FF1004F090FF117441CF
:1017BB00F090FF127401F090FF137441F090FF143E
:1017CB0074C1F090FF157401F090FF16F090FF17A5
:1017DB00F0E4F5B090FF1C74C1F090FF1DF0228E69
:1017EB00128F13E51365107004E512650F6072E537
:1017FB001330E41DC2B590004BE06401700AF0A3F6
:10180B0004F090004FE0F5097D017F01121C3E8032
:10181B0002D2B5E51330E51DC2A490004BE0640184
:10182B00700AF0A304F090004FE0F50B7D017F01EF
:10183B00121C3E8002D2A4E51330E61DC28290003A
:10184B004BE06401700AF0A304F090004FE0F50D3B
:10185B007D017F01121C3E8002D28285120F8513FF
:10186B001022E53264017056F532900053E0B52634
:10187B0008900043E065286010900054E0652670E6
:10188B003D900044E065287035E52CB5090BE50A61
:10189B00702C750A01C2B5801EE52CB50B0BE50C3F
:1018AB00701C750C01C2A4800EE52CB50D10E50E55
:1018BB00700C750E01C2827D017F01121C3E22E469
:1018CB00FDFC901D18E493FFEDC39F503A74017E0D
:1018DB0000A805088005C333CE33CED8F9FFE51D2C
:1018EB005EFEE51E5F4E600F74172DF582E434002B
:1018FB00F583ECF00C800D74172DF582E43400F5B4
:10190B008374FFF00D80BB22121179EF24E0601C71
:10191B0024E0602A2430703790004C7401F0E4907E
:10192B00004BF090004FE0F509B2B52290004C74DB
:10193B0001F0E490004BF090004FE0F50B2290008B
:10194B004C7401F0E490004BF090004FE0F50D2249
:10195B00051C901D18E493FFE51CC39F4007D200A4
:10196B00D201E4F51CE51E451D7003D20122740162
:10197B007E00A81C088005C333CE33CED8F9FFE513
:10198B001D5EFEE51E5F4E60C7E51C901CBC93F50B
:10199B00D5000000000022E4F513F513AF13E4FCAF
:1019AB00FDFE7B03FAF9F8D31214F0402E75F0020A
:1019BB00E513A4240BF582E5F03400F583E0FEA3D8
:1019CB00E0FF75F002E513A4243DF582E5F0340049
:1019DB00F583EEF0A3EFF0051380C122D310AF0116
:1019EB00C3C0D08E128F138D148B158A168917E4F2
:1019FB00FEEEC395145024AB150517E517AA167008
:101A0B0002051614F9121448FF0513E513AC1270F6
:101A1B0002051214FD121BD80E80D6D0D092AF2225
:101A2B00E52C24A0602014601014703290004B74CD
:101A3B0001F090004F7462801890004B7401F0908D
:101A4B00004F7461800B90004B7401F090004F7449
:101A5B0060F090006AE526F090004AE528F022C07D
:101A6B00E0C0F0C083C082C0D075D000C000C00100
:101A7B00C002C003C004C005C006C007121B4CD077
:101A8B0007D006D005D004D003D002D001D000D0AF
:101A9B00D0D082D083D0F0D0E032E4FF901D16E49A
:101AAB0093FEEFC39E502B75F002EFA4243DF582FD
:101ABB00E5F03400F583E0FCA3E0FD75F002EFA444
:101ACB00242EF582E5F03400F583ECF0A3EDF00F56
:101ADB0080CA22E5086542600E8542089000497471
:101AEB0001F0E4F555F556900049E06401701AE5F4
:101AFB00427016C3E5569432E5559400400BE4F55D
:101B0B000AF50CF50E121CAEF0228E128F138B14ED
:101B1B008A158916AF051DEF60260513E513AE1266
:101B2B007002051214F5828E83E493FFAB14051635
:101B3B00E516AA157002051514F9EF12146180D47D
:101B4B002253D4DF7417251CF582E43400F583E0AF
:101B5B0075F002A4240BF582E5F03400F583E5D78C
:101B6B00F0A3E5D6F0120006300203200006200198
:101B7B000343D44022E4FF900051E0FCA3E0FD645A
:101B8B00104C70047F1080035307EFED64204C70F2
:101B9B000543072080035307DFED64404C7004437B
:101BAB000740225307BF2212007EE4F512901D1846
:101BBB00E493FFE512C39F5009AF1212008E05127A
:101BCB0080EB901CCCE493600312006622D310AF21
:101BDB0001C3C0D08FFB75FDF075FC0F8CFA8DF92E
:101BEB0075FDB475FC4B75FDE175FC1ED0D092AF45
:101BFB0022D310AF01C3C0D075FDF075FC0F8EFA68
:101C0B008FF975FDD275FC2D75FDE175FC1ED0D0DD
:101C1B0092AF22E511654D6019854D11E5576401B1
:101C2B007010E54D6401700AC2AFFF7E3C121BFCC5
:101C3B00D2AF22E490006DF0A3F0900071EDF09024
:101C4B00006FEFF0C2B4E4A3F022758E1190FE91F9
:101C5B007401F090FEAA74FFF090FEA474C2F022FF
:101C6B00E490FE80F0F589758CFA758ACB43A80257
:101C7B0043881022E490FE80F0F589758DFF758BFB
:101C8B00BD43A80843884022AD07AC068C99309918
:101C9B00FDC2998D993099FDC299228F993099FD8A
:101CAB00C29922D2B5D2A4D2822290FE927410F0A5
:101CBB002202070B0C0D0E0F0070001400180A20E7
:101CCB000601000064006402020050000A000A00D2
:101CDB000A000A000A000A000A000A000A000A00A9
:101CEB000A000A000A000A000A000A0078007800BD
:101CFB007800780078007800780078007800780019
:0F1D0B007800780078007800780078030A0700E5
:00000001FF
